:020000040800F2
:100000001004002005040008E1030008E3030008D1
:10001000E5030008E7030008E9030008000000000A
:10002000000000000000000000000000EB030008DA
:10003000ED03000800000000EF030008F1030008D2
:100040003104000835040008390400083D040008A4
:100050004104000845040008490400084D04000854
:100060005104000855040008590400085D04000804
:100070006104000865040008690400086D040008B4
:1000800071040008750400087904000800000000ED
:100090000000000000000000000000007D040008D7
:1000A0008104000885040008890400088D04000804
:1000B000910400088F0200087502000895040008EA
:1000C000990400089D040008A1040008A504000884
:1000D000A9040008AD040008B104000800000000F5
:1000E0004D020008B5040008B90400080000000033
:1000F000000000000000000000000000BD04000837
:1001000000000000C1040008C5040008C90400087C
:1001100000000000000000000000000000000000DF
:10012000CD040008D1040008D5040008D904000853
:10013000DD040008000000000000000000000000D6
:10014000000000000000000000000000E1040008C2
:10015000E5040008E9040008ED040008F1040008C3
:10016000F5040008F9040008000000000000000089
:10017000000000000000000000000000000000007F
:1001800000000000FD040008000000000000000066
:10019000010500080505000810B54648016841F44E
:1001A000803101600124026B42F00502026342F2D9
:1001B000CF02016C41F0040101643F49CA6140F281
:1001C000E7320A620B6843F001030B605323016CB2
:1001D00041F0020101643949CB618C600A6201235C
:1001E00000228A610B604FF08043416C41F48041F2
:1001F00041643348016841F02001016031480268E0
:100200000260C16841F08061C1602F48C16841F45B
:100210000051C160026842F4005202604FF48072E3
:100220002A48016841F4806101604FF0005128487C
:1002300042600160102227490A7003603020487034
:1002400062B610BD80B5FFF7A7FFFEE72248016840
:100250008A040ED521490B689A0406D4204900234C
:100260004B620A6842F001020A60016841F40051E1
:10027000016070471B480168CA0707D51A490B6817
:1002800083F020030B60002201680260704714486D
:100290000169CA070CD515490B6883F001030B608F
:1002A0000168490849000160026952085200026170
:1002B00070470000003802400C0800400C04004069
:1002C0001438014000080240003C01400000024098
:1002D00000E100E01DE400E0143C01401008024091
:1002E00000040040100800401400024000080040D4
:1002F0000EE002684368024408305FEAC37C44BFF2
:100300004B445B1E52F804CB43F804CB091FF9D1D0
:1003100050F8041B0029ECD17047000010B50749C4
:1003200079441831064C7C44163404E00A68081DF0
:10033000114488470146A142F8D110BD2C000000AD
:100340003C0000004EF68851CEF20001086840F4EF
:1003500070000860BFF34F8FBFF36F8F4FF00170D5
:10036000E1EE100A7047000089FFFFFF0C0000005B
:10037000B4000000000000200000000000F00DF8B4
:10038000002801D0FFF7CAFFAFF300800020AFF3D1
:100390000080FFF757FF00F002F80120704700F0DF
:1003A00001B800000746384600F002F8FBE70000FD
:1003B00080B5AFF30080024A11001820ABBEFBE706
:1003C000260002000548014603B4684680F3098808
:1003D000AFF30080FFF7B6FFFFF7D0FFA5EDF5FE06
:1003E000FEE7FEE7FEE7FEE7FEE77047704770476F
:1003F00000F000B80248416802788A1842607047ED
:10040000000000200148804701480047150400080B
:10041000C50300080248016841F47001016070479B
:1004200088ED00E001000000000000001000000066
:10043000FFF7FEBFFFF7FEBFFFF7FEBFFFF7FEBFF0
:10044000FFF7FEBFFFF7FEBFFFF7FEBFFFF7FEBFE0
:10045000FFF7FEBFFFF7FEBFFFF7FEBFFFF7FEBFD0
:10046000FFF7FEBFFFF7FEBFFFF7FEBFFFF7FEBFC0
:10047000FFF7FEBFFFF7FEBFFFF7FEBFFFF7FEBFB0
:10048000FFF7FEBFFFF7FEBFFFF7FEBFFFF7FEBFA0
:10049000FFF7FEBFFFF7FEBFFFF7FEBFFFF7FEBF90
:1004A000FFF7FEBFFFF7FEBFFFF7FEBFFFF7FEBF80
:1004B000FFF7FEBFFFF7FEBFFFF7FEBFFFF7FEBF70
:1004C000FFF7FEBFFFF7FEBFFFF7FEBFFFF7FEBF60
:1004D000FFF7FEBFFFF7FEBFFFF7FEBFFFF7FEBF50
:1004E000FFF7FEBFFFF7FEBFFFF7FEBFFFF7FEBF40
:1004F000FFF7FEBFFFF7FEBFFFF7FEBFFFF7FEBF30
:08050000FFF7FEBFFFF7FEBF8D
:04000005080003C527
:00000001FF
